{
  "contractName": "CryptoCreatures",
  "abi": [
    {
      "inputs": [],
      "stateMutability": "nonpayable",
      "type": "constructor"
    },
    {
      "anonymous": false,
      "inputs": [
        {
          "indexed": true,
          "internalType": "address",
          "name": "_owner",
          "type": "address"
        },
        {
          "indexed": true,
          "internalType": "address",
          "name": "_approved",
          "type": "address"
        },
        {
          "indexed": true,
          "internalType": "uint256",
          "name": "_tokenId",
          "type": "uint256"
        }
      ],
      "name": "Approval",
      "type": "event"
    },
    {
      "anonymous": false,
      "inputs": [
        {
          "indexed": true,
          "internalType": "address",
          "name": "_from",
          "type": "address"
        },
        {
          "indexed": true,
          "internalType": "address",
          "name": "_to",
          "type": "address"
        },
        {
          "indexed": true,
          "internalType": "uint256",
          "name": "_tokenId",
          "type": "uint256"
        }
      ],
      "name": "Transfer",
      "type": "event"
    },
    {
      "inputs": [
        {
          "internalType": "address",
          "name": "to",
          "type": "address"
        },
        {
          "internalType": "uint256",
          "name": "tokenId",
          "type": "uint256"
        }
      ],
      "name": "approve",
      "outputs": [],
      "stateMutability": "nonpayable",
      "type": "function"
    },
    {
      "inputs": [
        {
          "internalType": "address",
          "name": "_owner",
          "type": "address"
        }
      ],
      "name": "balanceOf",
      "outputs": [
        {
          "internalType": "uint256",
          "name": "",
          "type": "uint256"
        }
      ],
      "stateMutability": "view",
      "type": "function",
      "constant": true
    },
    {
      "inputs": [
        {
          "internalType": "uint256",
          "name": "",
          "type": "uint256"
        }
      ],
      "name": "cryptoCreatures",
      "outputs": [
        {
          "internalType": "string",
          "name": "",
          "type": "string"
        }
      ],
      "stateMutability": "view",
      "type": "function",
      "constant": true
    },
    {
      "inputs": [],
      "name": "name",
      "outputs": [
        {
          "internalType": "string",
          "name": "",
          "type": "string"
        }
      ],
      "stateMutability": "view",
      "type": "function",
      "constant": true
    },
    {
      "inputs": [
        {
          "internalType": "uint256",
          "name": "_tokenId",
          "type": "uint256"
        }
      ],
      "name": "ownerOf",
      "outputs": [
        {
          "internalType": "address",
          "name": "",
          "type": "address"
        }
      ],
      "stateMutability": "view",
      "type": "function",
      "constant": true
    },
    {
      "inputs": [
        {
          "internalType": "bytes4",
          "name": "interfaceID",
          "type": "bytes4"
        }
      ],
      "name": "supportsInterface",
      "outputs": [
        {
          "internalType": "bool",
          "name": "",
          "type": "bool"
        }
      ],
      "stateMutability": "view",
      "type": "function",
      "constant": true
    },
    {
      "inputs": [],
      "name": "symbol",
      "outputs": [
        {
          "internalType": "string",
          "name": "",
          "type": "string"
        }
      ],
      "stateMutability": "view",
      "type": "function",
      "constant": true
    },
    {
      "inputs": [
        {
          "internalType": "uint256",
          "name": "index",
          "type": "uint256"
        }
      ],
      "name": "tokenByIndex",
      "outputs": [
        {
          "internalType": "uint256",
          "name": "",
          "type": "uint256"
        }
      ],
      "stateMutability": "view",
      "type": "function",
      "constant": true
    },
    {
      "inputs": [
        {
          "internalType": "address",
          "name": "owner",
          "type": "address"
        },
        {
          "internalType": "uint256",
          "name": "index",
          "type": "uint256"
        }
      ],
      "name": "tokenOfOwnerByIndex",
      "outputs": [
        {
          "internalType": "uint256",
          "name": "",
          "type": "uint256"
        }
      ],
      "stateMutability": "view",
      "type": "function",
      "constant": true
    },
    {
      "inputs": [],
      "name": "totalSupply",
      "outputs": [
        {
          "internalType": "uint256",
          "name": "",
          "type": "uint256"
        }
      ],
      "stateMutability": "view",
      "type": "function",
      "constant": true
    },
    {
      "inputs": [
        {
          "internalType": "address",
          "name": "_from",
          "type": "address"
        },
        {
          "internalType": "address",
          "name": "_to",
          "type": "address"
        },
        {
          "internalType": "uint256",
          "name": "_tokenId",
          "type": "uint256"
        }
      ],
      "name": "transferFrom",
      "outputs": [],
      "stateMutability": "nonpayable",
      "type": "function"
    },
    {
      "inputs": [
        {
          "internalType": "string",
          "name": "_cryptoCreature",
          "type": "string"
        }
      ],
      "name": "mint",
      "outputs": [],
      "stateMutability": "nonpayable",
      "type": "function"
    }
  ],
  "bytecode": "0x60806040523480156200001157600080fd5b50604080518082018252600f81526e43727970746f43726561747572657360881b60208083019182528351808501909452600a8452694343726561747572657360b01b908401528151919291839183916200006f9160009162000145565b5080516200008590600190602084019062000145565b505050620000b97f73813bba42f44928e20db2a5b92cac99671b641f2b84888df9e2d62fb1445082620000c160201b60201c565b505062000228565b6001600160e01b03198082161415620001205760405162461bcd60e51b815260206004820152601960248201527f496e76616c696420696e74657266616365207265717565737400000000000000604482015260640160405180910390fd5b6001600160e01b0319166000908152600260205260409020805460ff19166001179055565b8280546200015390620001eb565b90600052602060002090601f016020900481019282620001775760008555620001c2565b82601f106200019257805160ff1916838001178555620001c2565b82800160010185558215620001c2579182015b82811115620001c2578251825591602001919060010190620001a5565b50620001d0929150620001d4565b5090565b5b80821115620001d05760008155600101620001d5565b600181811c908216806200020057607f821691505b602082108114156200022257634e487b7160e01b600052602260045260246000fd5b50919050565b610e8880620002386000396000f3fe608060405234801561001057600080fd5b50600436106100b45760003560e01c80632f745c59116100715780632f745c591461015d5780634f6ccce7146101705780636352211e1461018357806370a08231146101ae57806395d89b41146101c1578063d85d3d27146101c957600080fd5b806301ffc9a7146100b957806306fdde03146100fb578063095ea7b31461011057806318160ddd1461012557806323b872dd146101375780632687b3b51461014a575b600080fd5b6100e66100c7366004610b48565b6001600160e01b03191660009081526002602052604090205460ff1690565b60405190151581526020015b60405180910390f35b6101036101dc565b6040516100f29190610ba9565b61012361011e366004610bf8565b61026e565b005b6006545b6040519081526020016100f2565b610123610145366004610c22565b6103b5565b610103610158366004610c5e565b6103c5565b61012961016b366004610bf8565b610471565b61012961017e366004610c5e565b610507565b610196610191366004610c5e565b610585565b6040516001600160a01b0390911681526020016100f2565b6101296101bc366004610c77565b6105c0565b610103610604565b6101236101d7366004610ca8565b610613565b6060600080546101eb90610d59565b80601f016020809104026020016040519081016040528092919081815260200182805461021790610d59565b80156102645780601f1061023957610100808354040283529160200191610264565b820191906000526020600020905b81548152906001019060200180831161024757829003601f168201915b5050505050905090565b600061027982610585565b9050806001600160a01b0316836001600160a01b031614156102ec5760405162461bcd60e51b815260206004820152602160248201527f4572726f72202d20617070726f76616c20746f2063757272656e74206f776e656044820152603960f91b60648201526084015b60405180910390fd5b336001600160a01b038216146103595760405162461bcd60e51b815260206004820152602c60248201527f43757272656e742063616c6c6572206973206e6f7420746865206f776e65722060448201526b37b3103a3432903a37b5b2b760a11b60648201526084016102e3565b60008281526005602052604080822080546001600160a01b0319166001600160a01b0387811691821790925591518593918516917f8c5be1e5ebec7d5bd14f71427d1e84f3dd0314c0f7b2291e5b200ac8c7c3b92591a4505050565b6103c0838383610727565b505050565b600a81815481106103d557600080fd5b9060005260206000200160009150905080546103f090610d59565b80601f016020809104026020016040519081016040528092919081815260200182805461041c90610d59565b80156104695780601f1061043e57610100808354040283529160200191610469565b820191906000526020600020905b81548152906001019060200180831161044c57829003601f168201915b505050505081565b600061047c836105c0565b82106104ca5760405162461bcd60e51b815260206004820152601d60248201527f4f776e657220696e64657820206973206f7574206f6620626f756e647300000060448201526064016102e3565b6001600160a01b03831660009081526008602052604090208054839081106104f4576104f4610d94565b9060005260206000200154905092915050565b600061051260065490565b82106105605760405162461bcd60e51b815260206004820152601c60248201527f546f6b656e20696e646578206973206f7574206f6620626f756e64730000000060448201526064016102e3565b6006828154811061057357610573610d94565b90600052602060002001549050919050565b6000818152600360205260408120546001600160a01b0316806105ba5760405162461bcd60e51b81526004016102e390610daa565b92915050565b60006001600160a01b0382166105e85760405162461bcd60e51b81526004016102e390610daa565b506001600160a01b031660009081526004602052604090205490565b6060600180546101eb90610d59565b600b816040516106239190610df1565b9081526040519081900360200190205460ff161561068f5760405162461bcd60e51b8152602060048201526024808201527f4572726f723a2043727970746f437265617475726520616c72656164792065786044820152636973747360e01b60648201526084016102e3565b600a805460018101825560009190915281516106d2917fc65a7bb8d6351c1cf70c95a316cc6a92839c986682d98bc35f958f4883f9d2a801906020840190610aaf565b50600a546000906106e590600190610e23565b90506106f133826108bf565b6001600b836040516107039190610df1565b908152604051908190036020019020805491151560ff199092169190911790555050565b6001600160a01b0382166107905760405162461bcd60e51b815260206004820152602a60248201527f4552433732313a2063616e6e6f74206265207472616e7366657272656420746f6044820152692030206164647265737360b01b60648201526084016102e3565b826001600160a01b03166107a382610585565b6001600160a01b0316146108095760405162461bcd60e51b815260206004820152602760248201527f43616e6e6f74207472616e7366657220746f6b656e2074686174206973206e6f6044820152661d081bdddb995960ca1b60648201526084016102e3565b6001600160a01b0383166000908152600460205260408120805460019290610832908490610e23565b90915550506001600160a01b0382166000908152600460205260408120805460019290610860908490610e3a565b909155505060008181526003602052604080822080546001600160a01b0319166001600160a01b03861690811790915590518392907fddf252ad1be2c89b69c2b068fc378daa952ba7f163c4a11628f55a4df523b3ef908290a4505050565b6108c98282610950565b61091181600680546000838152600760205260408120829055600182018355919091527ff652222313e28459528d920b65115c16c04f3efc82aaedc97be59f3f377c0d3f0155565b6001600160a01b039190911660009081526008602081815260408084208054868652600984529185208290559282526001810183559183529091200155565b6001600160a01b0382166109b45760405162461bcd60e51b815260206004820152602560248201527f4552433732313a2063616e6e6f74206265206d696e74656420746f2030206164604482015264647265737360d81b60648201526084016102e3565b6000818152600360205260409020546001600160a01b031615610a275760405162461bcd60e51b815260206004820152602560248201527f4552433732313a20746f6b656e2068617320616c7265616479206265656e206d6044820152641a5b9d195960da1b60648201526084016102e3565b600081815260036020908152604080832080546001600160a01b0319166001600160a01b038716908117909155835260049091528120805460019290610a6e908490610e3a565b909155505060405181906001600160a01b038416906000907fddf252ad1be2c89b69c2b068fc378daa952ba7f163c4a11628f55a4df523b3ef908290a45050565b828054610abb90610d59565b90600052602060002090601f016020900481019282610add5760008555610b23565b82601f10610af657805160ff1916838001178555610b23565b82800160010185558215610b23579182015b82811115610b23578251825591602001919060010190610b08565b50610b2f929150610b33565b5090565b5b80821115610b2f5760008155600101610b34565b600060208284031215610b5a57600080fd5b81356001600160e01b031981168114610b7257600080fd5b9392505050565b60005b83811015610b94578181015183820152602001610b7c565b83811115610ba3576000848401525b50505050565b6020815260008251806020840152610bc8816040850160208701610b79565b601f01601f19169190910160400192915050565b80356001600160a01b0381168114610bf357600080fd5b919050565b60008060408385031215610c0b57600080fd5b610c1483610bdc565b946020939093013593505050565b600080600060608486031215610c3757600080fd5b610c4084610bdc565b9250610c4e60208501610bdc565b9150604084013590509250925092565b600060208284031215610c7057600080fd5b5035919050565b600060208284031215610c8957600080fd5b610b7282610bdc565b634e487b7160e01b600052604160045260246000fd5b600060208284031215610cba57600080fd5b813567ffffffffffffffff80821115610cd257600080fd5b818401915084601f830112610ce657600080fd5b813581811115610cf857610cf8610c92565b604051601f8201601f19908116603f01168101908382118183101715610d2057610d20610c92565b81604052828152876020848701011115610d3957600080fd5b826020860160208301376000928101602001929092525095945050505050565b600181811c90821680610d6d57607f821691505b60208210811415610d8e57634e487b7160e01b600052602260045260246000fd5b50919050565b634e487b7160e01b600052603260045260246000fd5b60208082526027908201527f4552433732313a2063616e6e6f742062652061737369676e656420746f2030206040820152666164647265737360c81b606082015260800190565b60008251610e03818460208701610b79565b9190910192915050565b634e487b7160e01b600052601160045260246000fd5b600082821015610e3557610e35610e0d565b500390565b60008219821115610e4d57610e4d610e0d565b50019056fea264697066735822122083562c796eccc3c402edb29837a49011f64872142e64182fdad89f53d2089db564736f6c634300080b0033",
  "immutableReferences": {},
  "source": "// SPDX-License-Identifier: MIT\r\npragma solidity ^0.8.0;\r\n\r\nimport \"./ERC721Connector.sol\";\r\n\r\ncontract CryptoCreatures is ERC721Connector {\r\n    string[] public cryptoCreatures;\r\n\r\n    mapping(string => bool) _cryptoCreaturesExists;\r\n\r\n    function mint(string memory _cryptoCreature) public {\r\n        require(\r\n            !_cryptoCreaturesExists[_cryptoCreature],\r\n            \"Error: CryptoCreature already exists\"\r\n        );\r\n\r\n        cryptoCreatures.push(_cryptoCreature);\r\n        uint256 _id = cryptoCreatures.length - 1;\r\n\r\n        _mint(msg.sender, _id);\r\n\r\n        _cryptoCreaturesExists[_cryptoCreature] = true;\r\n    }\r\n\r\n    constructor() ERC721Connector(\"CryptoCreatures\", \"CCreatures\") {}\r\n}\r\n",
  "sourcePath": "C:\\Webdev\\playground-blockchain\\NFT\\CryptoCreatures\\src\\contracts\\CryptoCreatures.sol",
  "compiler": {
    "name": "solc",
    "version": "0.8.11+commit.d7f03943.Emscripten.clang"
  },
  "schemaVersion": "3.4.3",
  "updatedAt": "2022-01-02T11:11:30.246Z",
  "networkType": "ethereum",
  "devdoc": {
    "kind": "dev",
    "methods": {
      "supportsInterface(bytes4)": {
        "details": "Interface identification is specified in ERC-165. This function  uses less than 30,000 gas.",
        "params": {
          "interfaceID": "The interface identifier, as specified in ERC-165"
        },
        "returns": {
          "_0": "`true` if the contract implements `interfaceID` and  `interfaceID` is not 0xffffffff, `false` otherwise"
        }
      }
    },
    "version": 1
  },
  "userdoc": {
    "kind": "user",
    "methods": {
      "supportsInterface(bytes4)": {
        "notice": "Query if a contract implements an interface"
      }
    },
    "version": 1
  }
}