{
  "contractName": "CryptoCreatures",
  "abi": [
    {
      "inputs": [],
      "stateMutability": "nonpayable",
      "type": "constructor"
    },
    {
      "anonymous": false,
      "inputs": [
        {
          "indexed": true,
          "internalType": "address",
          "name": "from",
          "type": "address"
        },
        {
          "indexed": true,
          "internalType": "address",
          "name": "to",
          "type": "address"
        },
        {
          "indexed": true,
          "internalType": "uint256",
          "name": "tokenId",
          "type": "uint256"
        }
      ],
      "name": "Transfer",
      "type": "event"
    },
    {
      "inputs": [
        {
          "internalType": "address",
          "name": "_owner",
          "type": "address"
        }
      ],
      "name": "balanceOf",
      "outputs": [
        {
          "internalType": "uint256",
          "name": "",
          "type": "uint256"
        }
      ],
      "stateMutability": "view",
      "type": "function",
      "constant": true
    },
    {
      "inputs": [
        {
          "internalType": "uint256",
          "name": "",
          "type": "uint256"
        }
      ],
      "name": "cryptoCreatures",
      "outputs": [
        {
          "internalType": "string",
          "name": "",
          "type": "string"
        }
      ],
      "stateMutability": "view",
      "type": "function",
      "constant": true
    },
    {
      "inputs": [],
      "name": "name",
      "outputs": [
        {
          "internalType": "string",
          "name": "",
          "type": "string"
        }
      ],
      "stateMutability": "view",
      "type": "function",
      "constant": true
    },
    {
      "inputs": [
        {
          "internalType": "uint256",
          "name": "_tokenId",
          "type": "uint256"
        }
      ],
      "name": "ownerOf",
      "outputs": [
        {
          "internalType": "address",
          "name": "",
          "type": "address"
        }
      ],
      "stateMutability": "view",
      "type": "function",
      "constant": true
    },
    {
      "inputs": [],
      "name": "symbol",
      "outputs": [
        {
          "internalType": "string",
          "name": "",
          "type": "string"
        }
      ],
      "stateMutability": "view",
      "type": "function",
      "constant": true
    },
    {
      "inputs": [],
      "name": "totalSupply",
      "outputs": [
        {
          "internalType": "uint256",
          "name": "",
          "type": "uint256"
        }
      ],
      "stateMutability": "view",
      "type": "function",
      "constant": true
    },
    {
      "inputs": [
        {
          "internalType": "string",
          "name": "_cryptoCreature",
          "type": "string"
        }
      ],
      "name": "mint",
      "outputs": [],
      "stateMutability": "nonpayable",
      "type": "function"
    }
  ],
  "bytecode": "0x608060405234801561001057600080fd5b50604080518082018252600f81526e43727970746f43726561747572657360881b60208083019182528351808501909452600a8452694343726561747572657360b01b9084015281519192918391839161006c9160009161008a565b50805161008090600190602084019061008a565b505050505061015e565b82805461009690610123565b90600052602060002090601f0160209004810192826100b857600085556100fe565b82601f106100d157805160ff19168380011785556100fe565b828001600101855582156100fe579182015b828111156100fe5782518255916020019190600101906100e3565b5061010a92915061010e565b5090565b5b8082111561010a576000815560010161010f565b600181811c9082168061013757607f821691505b6020821081141561015857634e487b7160e01b600052602260045260246000fd5b50919050565b6108d48061016d6000396000f3fe608060405234801561001057600080fd5b506004361061007d5760003560e01c80636352211e1161005b5780636352211e146100c557806370a08231146100f057806395d89b4114610103578063d85d3d271461010b57600080fd5b806306fdde031461008257806318160ddd146100a05780632687b3b5146100b2575b600080fd5b61008a610120565b6040516100979190610678565b60405180910390f35b6004545b604051908152602001610097565b61008a6100c03660046106ab565b6101b2565b6100d86100d33660046106ab565b61025e565b6040516001600160a01b039091168152602001610097565b6100a46100fe3660046106c4565b6102a2565b61008a6102e6565b61011e61011936600461070a565b6102f5565b005b60606000805461012f906107bb565b80601f016020809104026020016040519081016040528092919081815260200182805461015b906107bb565b80156101a85780601f1061017d576101008083540402835291602001916101a8565b820191906000526020600020905b81548152906001019060200180831161018b57829003601f168201915b5050505050905090565b600881815481106101c257600080fd5b9060005260206000200160009150905080546101dd906107bb565b80601f0160208091040260200160405190810160405280929190818152602001828054610209906107bb565b80156102565780601f1061022b57610100808354040283529160200191610256565b820191906000526020600020905b81548152906001019060200180831161023957829003601f168201915b505050505081565b6000818152600260205260408120546001600160a01b03168061029c5760405162461bcd60e51b8152600401610293906107f6565b60405180910390fd5b92915050565b60006001600160a01b0382166102ca5760405162461bcd60e51b8152600401610293906107f6565b506001600160a01b031660009081526003602052604090205490565b60606001805461012f906107bb565b600981604051610305919061083d565b9081526040519081900360200190205460ff16156103715760405162461bcd60e51b8152602060048201526024808201527f4572726f723a2043727970746f437265617475726520616c72656164792065786044820152636973747360e01b6064820152608401610293565b6008805460018101825560009190915281516103b4917ff3f7a9fe364faab93b216da50a3214154f22a0a2b415b23a84c8169e8b636ee3019060208401906105af565b506008546000906103c79060019061086f565b90506103d33382610409565b60016009836040516103e5919061083d565b908152604051908190036020019020805491151560ff199092169190911790555050565b6104138282610450565b61044c81600480546001810182556000919091527f8a35acfbc15ff81a39ae7d344fd709f28e8600b4aa8c65c6b64bfe7fe36bd19b0155565b5050565b6001600160a01b0382166104b45760405162461bcd60e51b815260206004820152602560248201527f4552433732313a2063616e6e6f74206265206d696e74656420746f2030206164604482015264647265737360d81b6064820152608401610293565b6000818152600260205260409020546001600160a01b0316156105275760405162461bcd60e51b815260206004820152602560248201527f4552433732313a20746f6b656e2068617320616c7265616479206265656e206d6044820152641a5b9d195960da1b6064820152608401610293565b600081815260026020908152604080832080546001600160a01b0319166001600160a01b03871690811790915583526003909152812080546001929061056e908490610886565b909155505060405181906001600160a01b038416906000907fddf252ad1be2c89b69c2b068fc378daa952ba7f163c4a11628f55a4df523b3ef908290a45050565b8280546105bb906107bb565b90600052602060002090601f0160209004810192826105dd5760008555610623565b82601f106105f657805160ff1916838001178555610623565b82800160010185558215610623579182015b82811115610623578251825591602001919060010190610608565b5061062f929150610633565b5090565b5b8082111561062f5760008155600101610634565b60005b8381101561066357818101518382015260200161064b565b83811115610672576000848401525b50505050565b6020815260008251806020840152610697816040850160208701610648565b601f01601f19169190910160400192915050565b6000602082840312156106bd57600080fd5b5035919050565b6000602082840312156106d657600080fd5b81356001600160a01b03811681146106ed57600080fd5b9392505050565b634e487b7160e01b600052604160045260246000fd5b60006020828403121561071c57600080fd5b813567ffffffffffffffff8082111561073457600080fd5b818401915084601f83011261074857600080fd5b81358181111561075a5761075a6106f4565b604051601f8201601f19908116603f01168101908382118183101715610782576107826106f4565b8160405282815287602084870101111561079b57600080fd5b826020860160208301376000928101602001929092525095945050505050565b600181811c908216806107cf57607f821691505b602082108114156107f057634e487b7160e01b600052602260045260246000fd5b50919050565b60208082526027908201527f4552433732313a2063616e6e6f742062652061737369676e656420746f2030206040820152666164647265737360c81b606082015260800190565b6000825161084f818460208701610648565b9190910192915050565b634e487b7160e01b600052601160045260246000fd5b60008282101561088157610881610859565b500390565b6000821982111561089957610899610859565b50019056fea264697066735822122006ebd3c66322138589d5e8b8513b0b30794abf3ca5e0114e91749f65ee3eb67a64736f6c634300080a0033",
  "immutableReferences": {},
  "source": "// SPDX-License-Identifier: MIT\r\npragma solidity ^0.8.0;\r\n\r\nimport \"./ERC721Connector.sol\";\r\n\r\ncontract CryptoCreatures is ERC721Connector {\r\n    string[] public cryptoCreatures;\r\n\r\n    mapping(string => bool) _cryptoCreaturesExists;\r\n\r\n    function mint(string memory _cryptoCreature) public {\r\n        require(\r\n            !_cryptoCreaturesExists[_cryptoCreature],\r\n            \"Error: CryptoCreature already exists\"\r\n        );\r\n\r\n        cryptoCreatures.push(_cryptoCreature);\r\n        uint256 _id = cryptoCreatures.length - 1;\r\n\r\n        _mint(msg.sender, _id);\r\n\r\n        _cryptoCreaturesExists[_cryptoCreature] = true;\r\n    }\r\n\r\n    constructor() ERC721Connector(\"CryptoCreatures\", \"CCreatures\") {}\r\n}\r\n",
  "sourcePath": "C:\\Webdev\\playground-blockchain\\NFT\\CryptoCreatures\\src\\contracts\\CryptoCreatures.sol",
  "compiler": {
    "name": "solc",
    "version": "0.8.10+commit.fc410830.Emscripten.clang"
  },
  "schemaVersion": "3.4.3",
  "updatedAt": "2021-11-27T08:55:53.116Z",
  "networkType": "ethereum",
  "devdoc": {
    "kind": "dev",
    "methods": {},
    "version": 1
  },
  "userdoc": {
    "kind": "user",
    "methods": {},
    "version": 1
  }
}