{
  "contractName": "CryptoCreatures",
  "abi": [
    {
      "inputs": [],
      "stateMutability": "nonpayable",
      "type": "constructor"
    },
    {
      "anonymous": false,
      "inputs": [
        {
          "indexed": true,
          "internalType": "address",
          "name": "from",
          "type": "address"
        },
        {
          "indexed": true,
          "internalType": "address",
          "name": "to",
          "type": "address"
        },
        {
          "indexed": true,
          "internalType": "uint256",
          "name": "tokenId",
          "type": "uint256"
        }
      ],
      "name": "Transfer",
      "type": "event"
    },
    {
      "inputs": [
        {
          "internalType": "uint256",
          "name": "",
          "type": "uint256"
        }
      ],
      "name": "cryptoCreatures",
      "outputs": [
        {
          "internalType": "string",
          "name": "",
          "type": "string"
        }
      ],
      "stateMutability": "view",
      "type": "function",
      "constant": true
    },
    {
      "inputs": [],
      "name": "name",
      "outputs": [
        {
          "internalType": "string",
          "name": "",
          "type": "string"
        }
      ],
      "stateMutability": "view",
      "type": "function",
      "constant": true
    },
    {
      "inputs": [],
      "name": "symbol",
      "outputs": [
        {
          "internalType": "string",
          "name": "",
          "type": "string"
        }
      ],
      "stateMutability": "view",
      "type": "function",
      "constant": true
    },
    {
      "inputs": [
        {
          "internalType": "string",
          "name": "_cryptoCreature",
          "type": "string"
        }
      ],
      "name": "mint",
      "outputs": [],
      "stateMutability": "nonpayable",
      "type": "function"
    }
  ],
  "bytecode": "0x608060405234801561001057600080fd5b50604080518082018252600f81526e43727970746f43726561747572657360881b60208083019182528351808501909452600a8452694343726561747572657360b01b9084015281519192918391839161006c9160009161008a565b50805161008090600190602084019061008a565b505050505061015e565b82805461009690610123565b90600052602060002090601f0160209004810192826100b857600085556100fe565b82601f106100d157805160ff19168380011785556100fe565b828001600101855582156100fe579182015b828111156100fe5782518255916020019190600101906100e3565b5061010a92915061010e565b5090565b5b8082111561010a576000815560010161010f565b600181811c9082168061013757607f821691505b6020821081141561015857634e487b7160e01b600052602260045260246000fd5b50919050565b6107128061016d6000396000f3fe608060405234801561001057600080fd5b506004361061004c5760003560e01c806306fdde03146100515780632687b3b51461006f57806395d89b4114610082578063d85d3d271461008a575b600080fd5b61005961009f565b604051610066919061052d565b60405180910390f35b61005961007d366004610560565b610131565b6100596101dd565b61009d61009836600461058f565b6101ec565b005b6060600080546100ae90610640565b80601f01602080910402602001604051908101604052809291908181526020018280546100da90610640565b80156101275780601f106100fc57610100808354040283529160200191610127565b820191906000526020600020905b81548152906001019060200180831161010a57829003601f168201915b5050505050905090565b6004818154811061014157600080fd5b90600052602060002001600091509050805461015c90610640565b80601f016020809104026020016040519081016040528092919081815260200182805461018890610640565b80156101d55780601f106101aa576101008083540402835291602001916101d5565b820191906000526020600020905b8154815290600101906020018083116101b857829003601f168201915b505050505081565b6060600180546100ae90610640565b6005816040516101fc919061067b565b9081526040519081900360200190205460ff161561026d5760405162461bcd60e51b8152602060048201526024808201527f4572726f723a2043727970746f437265617475726520616c72656164792065786044820152636973747360e01b60648201526084015b60405180910390fd5b6004805460018101825560009190915281516102b0917f8a35acfbc15ff81a39ae7d344fd709f28e8600b4aa8c65c6b64bfe7fe36bd19b01906020840190610464565b506004546000906102c3906001906106ad565b90506102cf3382610305565b60016005836040516102e1919061067b565b908152604051908190036020019020805491151560ff199092169190911790555050565b6001600160a01b0382166103695760405162461bcd60e51b815260206004820152602560248201527f4552433732313a2063616e6e6f74206265206d696e74656420746f2030206164604482015264647265737360d81b6064820152608401610264565b6000818152600260205260409020546001600160a01b0316156103dc5760405162461bcd60e51b815260206004820152602560248201527f4552433732313a20746f6b656e2068617320616c7265616479206265656e206d6044820152641a5b9d195960da1b6064820152608401610264565b600081815260026020908152604080832080546001600160a01b0319166001600160a01b0387169081179091558352600390915281208054600192906104239084906106c4565b909155505060405181906001600160a01b038416906000907fddf252ad1be2c89b69c2b068fc378daa952ba7f163c4a11628f55a4df523b3ef908290a45050565b82805461047090610640565b90600052602060002090601f01602090048101928261049257600085556104d8565b82601f106104ab57805160ff19168380011785556104d8565b828001600101855582156104d8579182015b828111156104d85782518255916020019190600101906104bd565b506104e49291506104e8565b5090565b5b808211156104e457600081556001016104e9565b60005b83811015610518578181015183820152602001610500565b83811115610527576000848401525b50505050565b602081526000825180602084015261054c8160408501602087016104fd565b601f01601f19169190910160400192915050565b60006020828403121561057257600080fd5b5035919050565b634e487b7160e01b600052604160045260246000fd5b6000602082840312156105a157600080fd5b813567ffffffffffffffff808211156105b957600080fd5b818401915084601f8301126105cd57600080fd5b8135818111156105df576105df610579565b604051601f8201601f19908116603f0116810190838211818310171561060757610607610579565b8160405282815287602084870101111561062057600080fd5b826020860160208301376000928101602001929092525095945050505050565b600181811c9082168061065457607f821691505b6020821081141561067557634e487b7160e01b600052602260045260246000fd5b50919050565b6000825161068d8184602087016104fd565b9190910192915050565b634e487b7160e01b600052601160045260246000fd5b6000828210156106bf576106bf610697565b500390565b600082198211156106d7576106d7610697565b50019056fea264697066735822122080d616ad2fdba9772f1374dc1ed277ac30d021157f053e22551589e32186059b64736f6c634300080a0033",
  "immutableReferences": {},
  "source": "// SPDX-License-Identifier: MIT\r\npragma solidity ^0.8.0;\r\n\r\nimport \"./ERC721Connector.sol\";\r\n\r\ncontract CryptoCreatures is ERC721Connector {\r\n    string[] public cryptoCreatures;\r\n\r\n    mapping(string => bool) _cryptoCreaturesExists;\r\n\r\n    function mint(string memory _cryptoCreature) public {\r\n        require(\r\n            !_cryptoCreaturesExists[_cryptoCreature],\r\n            \"Error: CryptoCreature already exists\"\r\n        );\r\n\r\n        cryptoCreatures.push(_cryptoCreature);\r\n        uint256 _id = cryptoCreatures.length - 1;\r\n\r\n        _mint(msg.sender, _id);\r\n\r\n        _cryptoCreaturesExists[_cryptoCreature] = true;\r\n    }\r\n\r\n    constructor() ERC721Connector(\"CryptoCreatures\", \"CCreatures\") {}\r\n}\r\n",
  "sourcePath": "C:\\Webdev\\playground-blockchain\\nft\\CryptoCreatures\\src\\contracts\\CryptoCreatures.sol",
  "compiler": {
    "name": "solc",
    "version": "0.8.10+commit.fc410830.Emscripten.clang"
  },
  "schemaVersion": "3.4.3",
  "updatedAt": "2021-11-26T08:53:49.665Z",
  "networkType": "ethereum",
  "devdoc": {
    "kind": "dev",
    "methods": {},
    "version": 1
  },
  "userdoc": {
    "kind": "user",
    "methods": {},
    "version": 1
  }
}