{
  "contractName": "CryptoCreatures",
  "abi": [
    {
      "inputs": [],
      "stateMutability": "nonpayable",
      "type": "constructor"
    },
    {
      "anonymous": false,
      "inputs": [
        {
          "indexed": true,
          "internalType": "address",
          "name": "from",
          "type": "address"
        },
        {
          "indexed": true,
          "internalType": "address",
          "name": "to",
          "type": "address"
        },
        {
          "indexed": true,
          "internalType": "uint256",
          "name": "tokenId",
          "type": "uint256"
        }
      ],
      "name": "Transfer",
      "type": "event"
    },
    {
      "inputs": [
        {
          "internalType": "address",
          "name": "_owner",
          "type": "address"
        }
      ],
      "name": "balanceOf",
      "outputs": [
        {
          "internalType": "uint256",
          "name": "",
          "type": "uint256"
        }
      ],
      "stateMutability": "view",
      "type": "function",
      "constant": true
    },
    {
      "inputs": [
        {
          "internalType": "uint256",
          "name": "",
          "type": "uint256"
        }
      ],
      "name": "cryptoCreatures",
      "outputs": [
        {
          "internalType": "string",
          "name": "",
          "type": "string"
        }
      ],
      "stateMutability": "view",
      "type": "function",
      "constant": true
    },
    {
      "inputs": [],
      "name": "name",
      "outputs": [
        {
          "internalType": "string",
          "name": "",
          "type": "string"
        }
      ],
      "stateMutability": "view",
      "type": "function",
      "constant": true
    },
    {
      "inputs": [
        {
          "internalType": "uint256",
          "name": "_tokenId",
          "type": "uint256"
        }
      ],
      "name": "ownerOf",
      "outputs": [
        {
          "internalType": "address",
          "name": "",
          "type": "address"
        }
      ],
      "stateMutability": "view",
      "type": "function",
      "constant": true
    },
    {
      "inputs": [],
      "name": "symbol",
      "outputs": [
        {
          "internalType": "string",
          "name": "",
          "type": "string"
        }
      ],
      "stateMutability": "view",
      "type": "function",
      "constant": true
    },
    {
      "inputs": [
        {
          "internalType": "uint256",
          "name": "index",
          "type": "uint256"
        }
      ],
      "name": "tokenByIndex",
      "outputs": [
        {
          "internalType": "uint256",
          "name": "",
          "type": "uint256"
        }
      ],
      "stateMutability": "view",
      "type": "function",
      "constant": true
    },
    {
      "inputs": [
        {
          "internalType": "address",
          "name": "owner",
          "type": "address"
        },
        {
          "internalType": "uint256",
          "name": "index",
          "type": "uint256"
        }
      ],
      "name": "tokenOfOwnerByIndex",
      "outputs": [
        {
          "internalType": "uint256",
          "name": "",
          "type": "uint256"
        }
      ],
      "stateMutability": "view",
      "type": "function",
      "constant": true
    },
    {
      "inputs": [],
      "name": "totalSupply",
      "outputs": [
        {
          "internalType": "uint256",
          "name": "",
          "type": "uint256"
        }
      ],
      "stateMutability": "view",
      "type": "function",
      "constant": true
    },
    {
      "inputs": [
        {
          "internalType": "string",
          "name": "_cryptoCreature",
          "type": "string"
        }
      ],
      "name": "mint",
      "outputs": [],
      "stateMutability": "nonpayable",
      "type": "function"
    }
  ],
  "bytecode": "0x608060405234801561001057600080fd5b50604080518082018252600f81526e43727970746f43726561747572657360881b60208083019182528351808501909452600a8452694343726561747572657360b01b9084015281519192918391839161006c9160009161008a565b50805161008090600190602084019061008a565b505050505061015e565b82805461009690610123565b90600052602060002090601f0160209004810192826100b857600085556100fe565b82601f106100d157805160ff19168380011785556100fe565b828001600101855582156100fe579182015b828111156100fe5782518255916020019190600101906100e3565b5061010a92915061010e565b5090565b5b8082111561010a576000815560010161010f565b600181811c9082168061013757607f821691505b6020821081141561015857634e487b7160e01b600052602260045260246000fd5b50919050565b610ab88061016d6000396000f3fe608060405234801561001057600080fd5b50600436106100935760003560e01c80634f6ccce7116100665780634f6ccce7146100ee5780636352211e1461010157806370a082311461012c57806395d89b411461013f578063d85d3d271461014757600080fd5b806306fdde031461009857806318160ddd146100b65780632687b3b5146100c85780632f745c59146100db575b600080fd5b6100a061015c565b6040516100ad919061080e565b60405180910390f35b6004545b6040519081526020016100ad565b6100a06100d6366004610841565b6101ee565b6100ba6100e9366004610876565b61029a565b6100ba6100fc366004610841565b610335565b61011461010f366004610841565b6103b3565b6040516001600160a01b0390911681526020016100ad565b6100ba61013a3660046108a0565b6103ee565b6100a0610432565b61015a6101553660046108d8565b610441565b005b60606000805461016b90610989565b80601f016020809104026020016040519081016040528092919081815260200182805461019790610989565b80156101e45780601f106101b9576101008083540402835291602001916101e4565b820191906000526020600020905b8154815290600101906020018083116101c757829003601f168201915b5050505050905090565b600881815481106101fe57600080fd5b90600052602060002001600091509050805461021990610989565b80601f016020809104026020016040519081016040528092919081815260200182805461024590610989565b80156102925780601f1061026757610100808354040283529160200191610292565b820191906000526020600020905b81548152906001019060200180831161027557829003601f168201915b505050505081565b60006102a5836103ee565b82106102f85760405162461bcd60e51b815260206004820152601d60248201527f4f776e657220696e64657820206973206f7574206f6620626f756e647300000060448201526064015b60405180910390fd5b6001600160a01b0383166000908152600660205260409020805483908110610322576103226109c4565b9060005260206000200154905092915050565b600061034060045490565b821061038e5760405162461bcd60e51b815260206004820152601c60248201527f546f6b656e20696e646578206973206f7574206f6620626f756e64730000000060448201526064016102ef565b600482815481106103a1576103a16109c4565b90600052602060002001549050919050565b6000818152600260205260408120546001600160a01b0316806103e85760405162461bcd60e51b81526004016102ef906109da565b92915050565b60006001600160a01b0382166104165760405162461bcd60e51b81526004016102ef906109da565b506001600160a01b031660009081526003602052604090205490565b60606001805461016b90610989565b6009816040516104519190610a21565b9081526040519081900360200190205460ff16156104bd5760405162461bcd60e51b8152602060048201526024808201527f4572726f723a2043727970746f437265617475726520616c72656164792065786044820152636973747360e01b60648201526084016102ef565b600880546001810182556000919091528151610500917ff3f7a9fe364faab93b216da50a3214154f22a0a2b415b23a84c8169e8b636ee301906020840190610745565b5060085460009061051390600190610a53565b905061051f3382610555565b60016009836040516105319190610a21565b908152604051908190036020019020805491151560ff199092169190911790555050565b61055f82826105e6565b6105a781600480546000838152600560205260408120829055600182018355919091527f8a35acfbc15ff81a39ae7d344fd709f28e8600b4aa8c65c6b64bfe7fe36bd19b0155565b6001600160a01b039190911660009081526006602081815260408084208054868652600784529185208290559282526001810183559183529091200155565b6001600160a01b03821661064a5760405162461bcd60e51b815260206004820152602560248201527f4552433732313a2063616e6e6f74206265206d696e74656420746f2030206164604482015264647265737360d81b60648201526084016102ef565b6000818152600260205260409020546001600160a01b0316156106bd5760405162461bcd60e51b815260206004820152602560248201527f4552433732313a20746f6b656e2068617320616c7265616479206265656e206d6044820152641a5b9d195960da1b60648201526084016102ef565b600081815260026020908152604080832080546001600160a01b0319166001600160a01b038716908117909155835260039091528120805460019290610704908490610a6a565b909155505060405181906001600160a01b038416906000907fddf252ad1be2c89b69c2b068fc378daa952ba7f163c4a11628f55a4df523b3ef908290a45050565b82805461075190610989565b90600052602060002090601f01602090048101928261077357600085556107b9565b82601f1061078c57805160ff19168380011785556107b9565b828001600101855582156107b9579182015b828111156107b957825182559160200191906001019061079e565b506107c59291506107c9565b5090565b5b808211156107c557600081556001016107ca565b60005b838110156107f95781810151838201526020016107e1565b83811115610808576000848401525b50505050565b602081526000825180602084015261082d8160408501602087016107de565b601f01601f19169190910160400192915050565b60006020828403121561085357600080fd5b5035919050565b80356001600160a01b038116811461087157600080fd5b919050565b6000806040838503121561088957600080fd5b6108928361085a565b946020939093013593505050565b6000602082840312156108b257600080fd5b6108bb8261085a565b9392505050565b634e487b7160e01b600052604160045260246000fd5b6000602082840312156108ea57600080fd5b813567ffffffffffffffff8082111561090257600080fd5b818401915084601f83011261091657600080fd5b813581811115610928576109286108c2565b604051601f8201601f19908116603f01168101908382118183101715610950576109506108c2565b8160405282815287602084870101111561096957600080fd5b826020860160208301376000928101602001929092525095945050505050565b600181811c9082168061099d57607f821691505b602082108114156109be57634e487b7160e01b600052602260045260246000fd5b50919050565b634e487b7160e01b600052603260045260246000fd5b60208082526027908201527f4552433732313a2063616e6e6f742062652061737369676e656420746f2030206040820152666164647265737360c81b606082015260800190565b60008251610a338184602087016107de565b9190910192915050565b634e487b7160e01b600052601160045260246000fd5b600082821015610a6557610a65610a3d565b500390565b60008219821115610a7d57610a7d610a3d565b50019056fea264697066735822122035b0712c96ea64e3137092ab249427a795b67989a57c6a6f0b30daf3a9321e0264736f6c634300080a0033",
  "immutableReferences": {},
  "source": "// SPDX-License-Identifier: MIT\r\npragma solidity ^0.8.0;\r\n\r\nimport \"./ERC721Connector.sol\";\r\n\r\ncontract CryptoCreatures is ERC721Connector {\r\n    string[] public cryptoCreatures;\r\n\r\n    mapping(string => bool) _cryptoCreaturesExists;\r\n\r\n    function mint(string memory _cryptoCreature) public {\r\n        require(\r\n            !_cryptoCreaturesExists[_cryptoCreature],\r\n            \"Error: CryptoCreature already exists\"\r\n        );\r\n\r\n        cryptoCreatures.push(_cryptoCreature);\r\n        uint256 _id = cryptoCreatures.length - 1;\r\n\r\n        _mint(msg.sender, _id);\r\n\r\n        _cryptoCreaturesExists[_cryptoCreature] = true;\r\n    }\r\n\r\n    constructor() ERC721Connector(\"CryptoCreatures\", \"CCreatures\") {}\r\n}\r\n",
  "sourcePath": "C:\\Webdev\\playground-blockchain\\NFT\\CryptoCreatures\\src\\contracts\\CryptoCreatures.sol",
  "compiler": {
    "name": "solc",
    "version": "0.8.10+commit.fc410830.Emscripten.clang"
  },
  "schemaVersion": "3.4.3",
  "updatedAt": "2021-11-28T09:16:09.474Z",
  "networkType": "ethereum",
  "devdoc": {
    "kind": "dev",
    "methods": {},
    "version": 1
  },
  "userdoc": {
    "kind": "user",
    "methods": {},
    "version": 1
  }
}