{
  "contractName": "ERC721Connector",
  "abi": [
    {
      "inputs": [
        {
          "internalType": "string",
          "name": "name",
          "type": "string"
        },
        {
          "internalType": "string",
          "name": "symbol",
          "type": "string"
        }
      ],
      "stateMutability": "nonpayable",
      "type": "constructor"
    },
    {
      "anonymous": false,
      "inputs": [
        {
          "indexed": true,
          "internalType": "address",
          "name": "from",
          "type": "address"
        },
        {
          "indexed": true,
          "internalType": "address",
          "name": "to",
          "type": "address"
        },
        {
          "indexed": true,
          "internalType": "uint256",
          "name": "tokenId",
          "type": "uint256"
        }
      ],
      "name": "Transfer",
      "type": "event"
    },
    {
      "inputs": [
        {
          "internalType": "address",
          "name": "_owner",
          "type": "address"
        }
      ],
      "name": "balanceOf",
      "outputs": [
        {
          "internalType": "uint256",
          "name": "",
          "type": "uint256"
        }
      ],
      "stateMutability": "view",
      "type": "function"
    },
    {
      "inputs": [],
      "name": "name",
      "outputs": [
        {
          "internalType": "string",
          "name": "",
          "type": "string"
        }
      ],
      "stateMutability": "view",
      "type": "function"
    },
    {
      "inputs": [
        {
          "internalType": "uint256",
          "name": "_tokenId",
          "type": "uint256"
        }
      ],
      "name": "ownerOf",
      "outputs": [
        {
          "internalType": "address",
          "name": "",
          "type": "address"
        }
      ],
      "stateMutability": "view",
      "type": "function"
    },
    {
      "inputs": [],
      "name": "symbol",
      "outputs": [
        {
          "internalType": "string",
          "name": "",
          "type": "string"
        }
      ],
      "stateMutability": "view",
      "type": "function"
    },
    {
      "inputs": [],
      "name": "totalSupply",
      "outputs": [
        {
          "internalType": "uint256",
          "name": "",
          "type": "uint256"
        }
      ],
      "stateMutability": "view",
      "type": "function"
    }
  ],
  "bytecode": "0x608060405234801561001057600080fd5b506040516105bd3803806105bd83398101604081905261002f916101bf565b815182908290610046906000906020850190610064565b50805161005a906001906020840190610064565b505050505061025d565b82805461007090610222565b90600052602060002090601f01602090048101928261009257600085556100d8565b82601f106100ab57805160ff19168380011785556100d8565b828001600101855582156100d8579182015b828111156100d85782518255916020019190600101906100bd565b506100e49291506100e8565b5090565b5b808211156100e457600081556001016100e9565b634e487b7160e01b600052604160045260246000fd5b600082601f83011261012457600080fd5b81516001600160401b038082111561013e5761013e6100fd565b604051601f8301601f19908116603f01168101908282118183101715610166576101666100fd565b8160405283815260209250868385880101111561018257600080fd5b600091505b838210156101a45785820183015181830184015290820190610187565b838211156101b55760008385830101525b9695505050505050565b600080604083850312156101d257600080fd5b82516001600160401b03808211156101e957600080fd5b6101f586838701610113565b9350602085015191508082111561020b57600080fd5b5061021885828601610113565b9150509250929050565b600181811c9082168061023657607f821691505b6020821081141561025757634e487b7160e01b600052602260045260246000fd5b50919050565b6103518061026c6000396000f3fe608060405234801561001057600080fd5b50600436106100575760003560e01c806306fdde031461005c57806318160ddd1461007a5780636352211e1461008c57806370a08231146100b757806395d89b41146100ca575b600080fd5b6100646100d2565b60405161007191906101fb565b60405180910390f35b6004545b604051908152602001610071565b61009f61009a366004610250565b610164565b6040516001600160a01b039091168152602001610071565b61007e6100c5366004610269565b6101a8565b6100646101ec565b6060600080546100e190610299565b80601f016020809104026020016040519081016040528092919081815260200182805461010d90610299565b801561015a5780601f1061012f5761010080835404028352916020019161015a565b820191906000526020600020905b81548152906001019060200180831161013d57829003601f168201915b5050505050905090565b6000818152600260205260408120546001600160a01b0316806101a25760405162461bcd60e51b8152600401610199906102d4565b60405180910390fd5b92915050565b60006001600160a01b0382166101d05760405162461bcd60e51b8152600401610199906102d4565b506001600160a01b031660009081526003602052604090205490565b6060600180546100e190610299565b600060208083528351808285015260005b818110156102285785810183015185820160400152820161020c565b8181111561023a576000604083870101525b50601f01601f1916929092016040019392505050565b60006020828403121561026257600080fd5b5035919050565b60006020828403121561027b57600080fd5b81356001600160a01b038116811461029257600080fd5b9392505050565b600181811c908216806102ad57607f821691505b602082108114156102ce57634e487b7160e01b600052602260045260246000fd5b50919050565b60208082526027908201527f4552433732313a2063616e6e6f742062652061737369676e656420746f2030206040820152666164647265737360c81b60608201526080019056fea264697066735822122051db82476f43061220166f52ebc059842cbf23c159d39f679bae0fd4fe78ba5f64736f6c634300080a0033",
  "immutableReferences": {},
  "source": "// SPDX-License-Identifier: MIT\r\npragma solidity ^0.8.0;\r\n\r\nimport \"./ERC721Metadata.sol\";\r\nimport \"./ERC721Enumerable.sol\";\r\n\r\ncontract ERC721Connector is ERC721Metadata, ERC721Enumerable {\r\n    constructor(string memory name, string memory symbol)\r\n        ERC721Metadata(name, symbol)\r\n    {}\r\n}\r\n",
  "sourcePath": "C:\\Webdev\\playground-blockchain\\NFT\\CryptoCreatures\\src\\contracts\\ERC721Connector.sol",
  "compiler": {
    "name": "solc",
    "version": "0.8.10+commit.fc410830.Emscripten.clang"
  },
  "schemaVersion": "3.4.3",
  "updatedAt": "2021-11-27T08:55:50.605Z",
  "devdoc": {
    "kind": "dev",
    "methods": {},
    "version": 1
  },
  "userdoc": {
    "kind": "user",
    "methods": {},
    "version": 1
  }
}