{
  "contractName": "ERC721Connector",
  "abi": [
    {
      "inputs": [
        {
          "internalType": "string",
          "name": "name",
          "type": "string"
        },
        {
          "internalType": "string",
          "name": "symbol",
          "type": "string"
        }
      ],
      "stateMutability": "nonpayable",
      "type": "constructor"
    },
    {
      "anonymous": false,
      "inputs": [
        {
          "indexed": true,
          "internalType": "address",
          "name": "_owner",
          "type": "address"
        },
        {
          "indexed": true,
          "internalType": "address",
          "name": "_approved",
          "type": "address"
        },
        {
          "indexed": true,
          "internalType": "uint256",
          "name": "_tokenId",
          "type": "uint256"
        }
      ],
      "name": "Approval",
      "type": "event"
    },
    {
      "anonymous": false,
      "inputs": [
        {
          "indexed": true,
          "internalType": "address",
          "name": "_from",
          "type": "address"
        },
        {
          "indexed": true,
          "internalType": "address",
          "name": "_to",
          "type": "address"
        },
        {
          "indexed": true,
          "internalType": "uint256",
          "name": "_tokenId",
          "type": "uint256"
        }
      ],
      "name": "Transfer",
      "type": "event"
    },
    {
      "inputs": [
        {
          "internalType": "address",
          "name": "to",
          "type": "address"
        },
        {
          "internalType": "uint256",
          "name": "tokenId",
          "type": "uint256"
        }
      ],
      "name": "approve",
      "outputs": [],
      "stateMutability": "nonpayable",
      "type": "function"
    },
    {
      "inputs": [
        {
          "internalType": "address",
          "name": "_owner",
          "type": "address"
        }
      ],
      "name": "balanceOf",
      "outputs": [
        {
          "internalType": "uint256",
          "name": "",
          "type": "uint256"
        }
      ],
      "stateMutability": "view",
      "type": "function"
    },
    {
      "inputs": [],
      "name": "name",
      "outputs": [
        {
          "internalType": "string",
          "name": "",
          "type": "string"
        }
      ],
      "stateMutability": "view",
      "type": "function"
    },
    {
      "inputs": [
        {
          "internalType": "uint256",
          "name": "_tokenId",
          "type": "uint256"
        }
      ],
      "name": "ownerOf",
      "outputs": [
        {
          "internalType": "address",
          "name": "",
          "type": "address"
        }
      ],
      "stateMutability": "view",
      "type": "function"
    },
    {
      "inputs": [
        {
          "internalType": "bytes4",
          "name": "interfaceID",
          "type": "bytes4"
        }
      ],
      "name": "supportsInterface",
      "outputs": [
        {
          "internalType": "bool",
          "name": "",
          "type": "bool"
        }
      ],
      "stateMutability": "view",
      "type": "function"
    },
    {
      "inputs": [],
      "name": "symbol",
      "outputs": [
        {
          "internalType": "string",
          "name": "",
          "type": "string"
        }
      ],
      "stateMutability": "view",
      "type": "function"
    },
    {
      "inputs": [
        {
          "internalType": "uint256",
          "name": "index",
          "type": "uint256"
        }
      ],
      "name": "tokenByIndex",
      "outputs": [
        {
          "internalType": "uint256",
          "name": "",
          "type": "uint256"
        }
      ],
      "stateMutability": "view",
      "type": "function"
    },
    {
      "inputs": [
        {
          "internalType": "address",
          "name": "owner",
          "type": "address"
        },
        {
          "internalType": "uint256",
          "name": "index",
          "type": "uint256"
        }
      ],
      "name": "tokenOfOwnerByIndex",
      "outputs": [
        {
          "internalType": "uint256",
          "name": "",
          "type": "uint256"
        }
      ],
      "stateMutability": "view",
      "type": "function"
    },
    {
      "inputs": [],
      "name": "totalSupply",
      "outputs": [
        {
          "internalType": "uint256",
          "name": "",
          "type": "uint256"
        }
      ],
      "stateMutability": "view",
      "type": "function"
    },
    {
      "inputs": [
        {
          "internalType": "address",
          "name": "_from",
          "type": "address"
        },
        {
          "internalType": "address",
          "name": "_to",
          "type": "address"
        },
        {
          "internalType": "uint256",
          "name": "_tokenId",
          "type": "uint256"
        }
      ],
      "name": "transferFrom",
      "outputs": [],
      "stateMutability": "nonpayable",
      "type": "function"
    }
  ],
  "bytecode": "0x60806040523480156200001157600080fd5b5060405162000c5f38038062000c5f833981016040819052620000349162000296565b8151829082906200004d90600090602085019062000123565b5080516200006390600190602084019062000123565b505050620000977f73813bba42f44928e20db2a5b92cac99671b641f2b84888df9e2d62fb14450826200009f60201b60201c565b50506200033d565b6001600160e01b03198082161415620000fe5760405162461bcd60e51b815260206004820152601960248201527f496e76616c696420696e74657266616365207265717565737400000000000000604482015260640160405180910390fd5b6001600160e01b0319166000908152600260205260409020805460ff19166001179055565b828054620001319062000300565b90600052602060002090601f016020900481019282620001555760008555620001a0565b82601f106200017057805160ff1916838001178555620001a0565b82800160010185558215620001a0579182015b82811115620001a057825182559160200191906001019062000183565b50620001ae929150620001b2565b5090565b5b80821115620001ae5760008155600101620001b3565b634e487b7160e01b600052604160045260246000fd5b600082601f830112620001f157600080fd5b81516001600160401b03808211156200020e576200020e620001c9565b604051601f8301601f19908116603f01168101908282118183101715620002395762000239620001c9565b816040528381526020925086838588010111156200025657600080fd5b600091505b838210156200027a57858201830151818301840152908201906200025b565b838211156200028c5760008385830101525b9695505050505050565b60008060408385031215620002aa57600080fd5b82516001600160401b0380821115620002c257600080fd5b620002d086838701620001df565b93506020850151915080821115620002e757600080fd5b50620002f685828601620001df565b9150509250929050565b600181811c908216806200031557607f821691505b602082108114156200033757634e487b7160e01b600052602260045260246000fd5b50919050565b610912806200034d6000396000f3fe608060405234801561001057600080fd5b506004361061009e5760003560e01c80632f745c59116100665780632f745c59146101345780634f6ccce7146101475780636352211e1461015a57806370a082311461018557806395d89b411461019857600080fd5b806301ffc9a7146100a357806306fdde03146100e5578063095ea7b3146100fa57806318160ddd1461010f57806323b872dd14610121575b600080fd5b6100d06100b13660046106c3565b6001600160e01b03191660009081526002602052604090205460ff1690565b60405190151581526020015b60405180910390f35b6100ed6101a0565b6040516100dc91906106f4565b61010d610108366004610765565b610232565b005b6006545b6040519081526020016100dc565b61010d61012f36600461078f565b610379565b610113610142366004610765565b610389565b6101136101553660046107cb565b61041f565b61016d6101683660046107cb565b61049d565b6040516001600160a01b0390911681526020016100dc565b6101136101933660046107e4565b6104d8565b6100ed61051c565b6060600080546101af906107ff565b80601f01602080910402602001604051908101604052809291908181526020018280546101db906107ff565b80156102285780601f106101fd57610100808354040283529160200191610228565b820191906000526020600020905b81548152906001019060200180831161020b57829003601f168201915b5050505050905090565b600061023d8261049d565b9050806001600160a01b0316836001600160a01b031614156102b05760405162461bcd60e51b815260206004820152602160248201527f4572726f72202d20617070726f76616c20746f2063757272656e74206f776e656044820152603960f91b60648201526084015b60405180910390fd5b336001600160a01b0382161461031d5760405162461bcd60e51b815260206004820152602c60248201527f43757272656e742063616c6c6572206973206e6f7420746865206f776e65722060448201526b37b3103a3432903a37b5b2b760a11b60648201526084016102a7565b60008281526005602052604080822080546001600160a01b0319166001600160a01b0387811691821790925591518593918516917f8c5be1e5ebec7d5bd14f71427d1e84f3dd0314c0f7b2291e5b200ac8c7c3b92591a4505050565b61038483838361052b565b505050565b6000610394836104d8565b82106103e25760405162461bcd60e51b815260206004820152601d60248201527f4f776e657220696e64657820206973206f7574206f6620626f756e647300000060448201526064016102a7565b6001600160a01b038316600090815260086020526040902080548390811061040c5761040c61083a565b9060005260206000200154905092915050565b600061042a60065490565b82106104785760405162461bcd60e51b815260206004820152601c60248201527f546f6b656e20696e646578206973206f7574206f6620626f756e64730000000060448201526064016102a7565b6006828154811061048b5761048b61083a565b90600052602060002001549050919050565b6000818152600360205260408120546001600160a01b0316806104d25760405162461bcd60e51b81526004016102a790610850565b92915050565b60006001600160a01b0382166105005760405162461bcd60e51b81526004016102a790610850565b506001600160a01b031660009081526004602052604090205490565b6060600180546101af906107ff565b6001600160a01b0382166105945760405162461bcd60e51b815260206004820152602a60248201527f4552433732313a2063616e6e6f74206265207472616e7366657272656420746f6044820152692030206164647265737360b01b60648201526084016102a7565b826001600160a01b03166105a78261049d565b6001600160a01b03161461060d5760405162461bcd60e51b815260206004820152602760248201527f43616e6e6f74207472616e7366657220746f6b656e2074686174206973206e6f6044820152661d081bdddb995960ca1b60648201526084016102a7565b6001600160a01b03831660009081526004602052604081208054600192906106369084906108ad565b90915550506001600160a01b03821660009081526004602052604081208054600192906106649084906108c4565b909155505060008181526003602052604080822080546001600160a01b0319166001600160a01b03861690811790915590518392907fddf252ad1be2c89b69c2b068fc378daa952ba7f163c4a11628f55a4df523b3ef908290a4505050565b6000602082840312156106d557600080fd5b81356001600160e01b0319811681146106ed57600080fd5b9392505050565b600060208083528351808285015260005b8181101561072157858101830151858201604001528201610705565b81811115610733576000604083870101525b50601f01601f1916929092016040019392505050565b80356001600160a01b038116811461076057600080fd5b919050565b6000806040838503121561077857600080fd5b61078183610749565b946020939093013593505050565b6000806000606084860312156107a457600080fd5b6107ad84610749565b92506107bb60208501610749565b9150604084013590509250925092565b6000602082840312156107dd57600080fd5b5035919050565b6000602082840312156107f657600080fd5b6106ed82610749565b600181811c9082168061081357607f821691505b6020821081141561083457634e487b7160e01b600052602260045260246000fd5b50919050565b634e487b7160e01b600052603260045260246000fd5b60208082526027908201527f4552433732313a2063616e6e6f742062652061737369676e656420746f2030206040820152666164647265737360c81b606082015260800190565b634e487b7160e01b600052601160045260246000fd5b6000828210156108bf576108bf610897565b500390565b600082198211156108d7576108d7610897565b50019056fea2646970667358221220a6b83e97012e66e198026b2cdeacec94670095747c2eb0c91021542bfd1b05d964736f6c634300080b0033",
  "immutableReferences": {},
  "source": "// SPDX-License-Identifier: MIT\r\npragma solidity ^0.8.0;\r\n\r\nimport \"./ERC721Metadata.sol\";\r\nimport \"./ERC721Enumerable.sol\";\r\n\r\ncontract ERC721Connector is ERC721Metadata, ERC721Enumerable {\r\n    constructor(string memory name, string memory symbol)\r\n        ERC721Metadata(name, symbol)\r\n    {}\r\n}\r\n",
  "sourcePath": "C:\\Webdev\\playground-blockchain\\NFT\\CryptoCreatures\\src\\contracts\\ERC721Connector.sol",
  "compiler": {
    "name": "solc",
    "version": "0.8.11+commit.d7f03943.Emscripten.clang"
  },
  "schemaVersion": "3.4.3",
  "updatedAt": "2022-01-02T11:11:27.489Z",
  "devdoc": {
    "kind": "dev",
    "methods": {
      "supportsInterface(bytes4)": {
        "details": "Interface identification is specified in ERC-165. This function  uses less than 30,000 gas.",
        "params": {
          "interfaceID": "The interface identifier, as specified in ERC-165"
        },
        "returns": {
          "_0": "`true` if the contract implements `interfaceID` and  `interfaceID` is not 0xffffffff, `false` otherwise"
        }
      }
    },
    "version": 1
  },
  "userdoc": {
    "kind": "user",
    "methods": {
      "supportsInterface(bytes4)": {
        "notice": "Query if a contract implements an interface"
      }
    },
    "version": 1
  }
}