{
  "contractName": "ERC721Enumerable",
  "abi": [
    {
      "anonymous": false,
      "inputs": [
        {
          "indexed": true,
          "internalType": "address",
          "name": "from",
          "type": "address"
        },
        {
          "indexed": true,
          "internalType": "address",
          "name": "to",
          "type": "address"
        },
        {
          "indexed": true,
          "internalType": "uint256",
          "name": "tokenId",
          "type": "uint256"
        }
      ],
      "name": "Transfer",
      "type": "event"
    },
    {
      "inputs": [
        {
          "internalType": "address",
          "name": "_owner",
          "type": "address"
        }
      ],
      "name": "balanceOf",
      "outputs": [
        {
          "internalType": "uint256",
          "name": "",
          "type": "uint256"
        }
      ],
      "stateMutability": "view",
      "type": "function"
    },
    {
      "inputs": [
        {
          "internalType": "uint256",
          "name": "_tokenId",
          "type": "uint256"
        }
      ],
      "name": "ownerOf",
      "outputs": [
        {
          "internalType": "address",
          "name": "",
          "type": "address"
        }
      ],
      "stateMutability": "view",
      "type": "function"
    },
    {
      "inputs": [],
      "name": "totalSupply",
      "outputs": [
        {
          "internalType": "uint256",
          "name": "",
          "type": "uint256"
        }
      ],
      "stateMutability": "view",
      "type": "function"
    }
  ],
  "bytecode": "0x608060405234801561001057600080fd5b506101e9806100206000396000f3fe608060405234801561001057600080fd5b50600436106100415760003560e01c806318160ddd146100465780636352211e1461005d57806370a0823114610088575b600080fd5b6002545b6040519081526020015b60405180910390f35b61007061006b366004610123565b61009b565b6040516001600160a01b039091168152602001610054565b61004a61009636600461013c565b6100df565b6000818152602081905260408120546001600160a01b0316806100d95760405162461bcd60e51b81526004016100d09061016c565b60405180910390fd5b92915050565b60006001600160a01b0382166101075760405162461bcd60e51b81526004016100d09061016c565b506001600160a01b031660009081526001602052604090205490565b60006020828403121561013557600080fd5b5035919050565b60006020828403121561014e57600080fd5b81356001600160a01b038116811461016557600080fd5b9392505050565b60208082526027908201527f4552433732313a2063616e6e6f742062652061737369676e656420746f2030206040820152666164647265737360c81b60608201526080019056fea2646970667358221220544d8b4e9075a66ac09411f8cb4ebdce5d01875dfe13968e754cf334bd00ddee64736f6c634300080a0033",
  "immutableReferences": {},
  "source": "// SPDX-License-Identifier: MIT\r\npragma solidity ^0.8.0;\r\n\r\nimport \"./ERC721.sol\";\r\n\r\ncontract ERC721Enumerable is ERC721 {\r\n    uint256[] private _allTokens;\r\n\r\n    // mapping from tokenId to position in _allTokens array\r\n    mapping(uint256 => uint256) private _allTokenIndex;\r\n\r\n    // mapping of owner to list of all owner token Ids\r\n    mapping(address => uint256[]) private _ownedTokens;\r\n\r\n    // mapping from token ID index of the owner tokens list\r\n    mapping(uint256 => uint256) private _ownedTokensIndex;\r\n\r\n    function totalSupply() external view returns (uint256) {\r\n        return _allTokens.length;\r\n    }\r\n\r\n    // function tokenByIndex(uint256 _index) external view returns (uint256) {}\r\n\r\n    // function tokenOfOwnerByIndex(address _owner, uint256 _index) external view returns (uint256) {}\r\n\r\n    function _mint(address to, uint256 tokenId) internal override(ERC721) {\r\n        super._mint(to, tokenId);\r\n\r\n        _addTokensToTotalSupply(tokenId);\r\n    }\r\n\r\n    function _addTokensToTotalSupply(uint256 tokenId) private {\r\n        _allTokens.push(tokenId);\r\n    }\r\n}\r\n",
  "sourcePath": "C:\\Webdev\\playground-blockchain\\NFT\\CryptoCreatures\\src\\contracts\\ERC721Enumerable.sol",
  "compiler": {
    "name": "solc",
    "version": "0.8.10+commit.fc410830.Emscripten.clang"
  },
  "schemaVersion": "3.4.3",
  "updatedAt": "2021-11-27T08:55:50.610Z",
  "devdoc": {
    "kind": "dev",
    "methods": {},
    "version": 1
  },
  "userdoc": {
    "kind": "user",
    "methods": {},
    "version": 1
  }
}